{
  "deployments": [
    {
      "transactions": [
        {
          "hash": "0xc8ec8875bdd0843e4d0eebc38230271d48aca34288baa80ebed80244ccbf8517",
          "transactionType": "CALL",
          "contractName": null,
          "contractAddress": "0x763d95d1f6471f1e99024d704005750fb0fca0c0",
          "function": "addSupportedToken(address)",
          "arguments": [
            "0x8B3200C0e21f121df60EF717A74617Df4Fa367af"
          ],
          "transaction": {
            "from": "0x27c1c548be42711520121f080296dfe8870d6bcd",
            "to": "0x763d95d1f6471f1e99024d704005750fb0fca0c0",
            "gas": "0x1004e",
            "value": "0x0",
            "input": "0x6d69fcaf0000000000000000000000008b3200c0e21f121df60ef717a74617df4fa367af",
            "nonce": "0x15",
            "chainId": "0x515"
          },
          "additionalContracts": [],
          "isFixedGasLimit": false
        },
        {
          "hash": "0x06a1cbb460618d5ca1fe3b4fd885325b1c7730d602184ebf56a271cd05676e35",
          "transactionType": "CALL",
          "contractName": null,
          "contractAddress": "0x763d95d1f6471f1e99024d704005750fb0fca0c0",
          "function": "setPriceFeedId(address,bytes32)",
          "arguments": [
            "0x8B3200C0e21f121df60EF717A74617Df4Fa367af",
            "0xeaa020c61cc479712813461ce153894a96a6c00b21ed0cfc2798d1f9a9e9c94a"
          ],
          "transaction": {
            "from": "0x27c1c548be42711520121f080296dfe8870d6bcd",
            "to": "0x763d95d1f6471f1e99024d704005750fb0fca0c0",
            "gas": "0xfbe2",
            "value": "0x0",
            "input": "0xd3c217cd0000000000000000000000008b3200c0e21f121df60ef717a74617df4fa367afeaa020c61cc479712813461ce153894a96a6c00b21ed0cfc2798d1f9a9e9c94a",
            "nonce": "0x16",
            "chainId": "0x515"
          },
          "additionalContracts": [],
          "isFixedGasLimit": false
        },
        {
          "hash": "0x2ea19b11b9d63039422498f0b2feda86a8283e4e25db3f71ad2bf123da4f89f2",
          "transactionType": "CALL",
          "contractName": null,
          "contractAddress": "0x763d95d1f6471f1e99024d704005750fb0fca0c0",
          "function": "setDestinationChainEids(address,uint32)",
          "arguments": [
            "0x8B3200C0e21f121df60EF717A74617Df4Fa367af",
            "2"
          ],
          "transaction": {
            "from": "0x27c1c548be42711520121f080296dfe8870d6bcd",
            "to": "0x763d95d1f6471f1e99024d704005750fb0fca0c0",
            "gas": "0xfaa1",
            "value": "0x0",
            "input": "0x70e9f02a0000000000000000000000008b3200c0e21f121df60ef717a74617df4fa367af0000000000000000000000000000000000000000000000000000000000000002",
            "nonce": "0x17",
            "chainId": "0x515"
          },
          "additionalContracts": [],
          "isFixedGasLimit": false
        },
        {
          "hash": "0xf32148f83307bb51a21bc9609b32a4f33ad9422a006618f189cbd2c4210b73b6",
          "transactionType": "CALL",
          "contractName": null,
          "contractAddress": "0x763d95d1f6471f1e99024d704005750fb0fca0c0",
          "function": "setPeer(uint32,bytes32)",
          "arguments": [
            "2",
            "0x000000000000000000000000febff4ae0a55be9a48e239648df53e0fc462f60a"
          ],
          "transaction": {
            "from": "0x27c1c548be42711520121f080296dfe8870d6bcd",
            "to": "0x763d95d1f6471f1e99024d704005750fb0fca0c0",
            "gas": "0x11067",
            "value": "0x0",
            "input": "0x3400288b0000000000000000000000000000000000000000000000000000000000000002000000000000000000000000febff4ae0a55be9a48e239648df53e0fc462f60a",
            "nonce": "0x18",
            "chainId": "0x515"
          },
          "additionalContracts": [],
          "isFixedGasLimit": false
        },
        {
          "hash": "0x248629dcd28fb8b2ab8fb4662250caf8a461352a7c0a1433ef1394fa54aefa2d",
          "transactionType": "CALL",
          "contractName": null,
          "contractAddress": "0x8b3200c0e21f121df60ef717a74617df4fa367af",
          "function": "grantRole(bytes32,address)",
          "arguments": [
            "0x9f2df0fed2c77648de5860a4cc508cd0818c85b8b8a1ab4ceeef8d981c8956a6",
            "0x763D95d1F6471f1E99024D704005750FB0fCa0c0"
          ],
          "transaction": {
            "from": "0x27c1c548be42711520121f080296dfe8870d6bcd",
            "to": "0x8b3200c0e21f121df60ef717a74617df4fa367af",
            "gas": "0x12649",
            "value": "0x0",
            "input": "0x2f2ff15d9f2df0fed2c77648de5860a4cc508cd0818c85b8b8a1ab4ceeef8d981c8956a6000000000000000000000000763d95d1f6471f1e99024d704005750fb0fca0c0",
            "nonce": "0x19",
            "chainId": "0x515"
          },
          "additionalContracts": [],
          "isFixedGasLimit": false
        },
        {
          "hash": "0xbb8b306e1a20eaf84210f848333b3382a89e73e25e42ebb2178f56eb270c1ce0",
          "transactionType": "CALL",
          "contractName": null,
          "contractAddress": "0x8b3200c0e21f121df60ef717a74617df4fa367af",
          "function": "grantRole(bytes32,address)",
          "arguments": [
            "0x3c11d16cbaffd01df69ce1c404f6340ee057498f5f00246190ea54220576a848",
            "0x763D95d1F6471f1E99024D704005750FB0fCa0c0"
          ],
          "transaction": {
            "from": "0x27c1c548be42711520121f080296dfe8870d6bcd",
            "to": "0x8b3200c0e21f121df60ef717a74617df4fa367af",
            "gas": "0x115de",
            "value": "0x0",
            "input": "0x2f2ff15d3c11d16cbaffd01df69ce1c404f6340ee057498f5f00246190ea54220576a848000000000000000000000000763d95d1f6471f1e99024d704005750fb0fca0c0",
            "nonce": "0x1a",
            "chainId": "0x515"
          },
          "additionalContracts": [],
          "isFixedGasLimit": false
        }
      ],
      "receipts": [
        {
          "status": "0x1",
          "cumulativeGasUsed": "0x1b6f2",
          "logs": [
            {
              "address": "0x763d95d1f6471f1e99024d704005750fb0fca0c0",
              "topics": [
                "0x784c8f4dbf0ffedd6e72c76501c545a70f8b203b30a26ce542bf92ba87c248a4"
              ],
              "data": "0x0000000000000000000000008b3200c0e21f121df60ef717a74617df4fa367af",
              "blockHash": "0x96ad702867f95178630909b5840b54caf19687cae8e87d96cd29c9e67c93dd42",
              "blockNumber": "0x4b6f5b",
              "transactionHash": "0xc8ec8875bdd0843e4d0eebc38230271d48aca34288baa80ebed80244ccbf8517",
              "transactionIndex": "0x2",
              "logIndex": "0x0",
              "removed": false
            }
          ],
          "logsBloom": "0x00000000000000000000000000000000000000000000000000000000000000000000000000000000000000000000000000000000000000000000000000000000000000000000000000000000000000000000000000000000000000000000000000000000000000000000000000000000000000000000200000004000000000000000000000000000000000000000000000000000000000000000000000000000000000000000040000200000000000000010000000000000000000000000000000000000000000000000000000000000000000000000000000000000000000000000000000000000000000000000000000000000000000001000000000000000",
          "type": "0x2",
          "transactionHash": "0xc8ec8875bdd0843e4d0eebc38230271d48aca34288baa80ebed80244ccbf8517",
          "transactionIndex": "0x2",
          "blockHash": "0x96ad702867f95178630909b5840b54caf19687cae8e87d96cd29c9e67c93dd42",
          "blockNumber": "0x4b6f5b",
          "gasUsed": "0xb990",
          "effectiveGasPrice": "0xf433d",
          "from": "0x27c1c548be42711520121f080296dfe8870d6bcd",
          "to": "0x763d95d1f6471f1e99024d704005750fb0fca0c0",
          "contractAddress": null,
          "l1BaseFeeScalar": "0x7d0",
          "l1BlobBaseFee": "0x1",
          "l1BlobBaseFeeScalar": "0xdbba0",
          "l1Fee": "0x278fba",
          "l1GasPrice": "0xc5cce",
          "l1GasUsed": "0x640"
        },
        {
          "status": "0x1",
          "cumulativeGasUsed": "0x388ba",
          "logs": [],
          "logsBloom": "0x00000000000000000000000000000000000000000000000000000000000000000000000000000000000000000000000000000000000000000000000000000000000000000000000000000000000000000000000000000000000000000000000000000000000000000000000000000000000000000000000000000000000000000000000000000000000000000000000000000000000000000000000000000000000000000000000000000000000000000000000000000000000000000000000000000000000000000000000000000000000000000000000000000000000000000000000000000000000000000000000000000000000000000000000000000000",
          "type": "0x2",
          "transactionHash": "0x06a1cbb460618d5ca1fe3b4fd885325b1c7730d602184ebf56a271cd05676e35",
          "transactionIndex": "0x2",
          "blockHash": "0x57740337a365315cb8f6785457d3ebeab212bf215e33b08cad2e66d209287d34",
          "blockNumber": "0x4b6f5c",
          "gasUsed": "0xb65d",
          "effectiveGasPrice": "0xf433d",
          "from": "0x27c1c548be42711520121f080296dfe8870d6bcd",
          "to": "0x763d95d1f6471f1e99024d704005750fb0fca0c0",
          "contractAddress": null,
          "l1BaseFeeScalar": "0x7d0",
          "l1BlobBaseFee": "0x1",
          "l1BlobBaseFeeScalar": "0xdbba0",
          "l1Fee": "0x29657d",
          "l1GasPrice": "0xc5cce",
          "l1GasUsed": "0x68a"
        },
        {
          "status": "0x1",
          "cumulativeGasUsed": "0x43e2e",
          "logs": [],
          "logsBloom": "0x00000000000000000000000000000000000000000000000000000000000000000000000000000000000000000000000000000000000000000000000000000000000000000000000000000000000000000000000000000000000000000000000000000000000000000000000000000000000000000000000000000000000000000000000000000000000000000000000000000000000000000000000000000000000000000000000000000000000000000000000000000000000000000000000000000000000000000000000000000000000000000000000000000000000000000000000000000000000000000000000000000000000000000000000000000000",
          "type": "0x2",
          "transactionHash": "0x2ea19b11b9d63039422498f0b2feda86a8283e4e25db3f71ad2bf123da4f89f2",
          "transactionIndex": "0x3",
          "blockHash": "0x57740337a365315cb8f6785457d3ebeab212bf215e33b08cad2e66d209287d34",
          "blockNumber": "0x4b6f5c",
          "gasUsed": "0xb574",
          "effectiveGasPrice": "0xf433d",
          "from": "0x27c1c548be42711520121f080296dfe8870d6bcd",
          "to": "0x763d95d1f6471f1e99024d704005750fb0fca0c0",
          "contractAddress": null,
          "l1BaseFeeScalar": "0x7d0",
          "l1BlobBaseFee": "0x1",
          "l1BlobBaseFeeScalar": "0xdbba0",
          "l1Fee": "0x278fba",
          "l1GasPrice": "0xc5cce",
          "l1GasUsed": "0x640"
        },
        {
          "status": "0x1",
          "cumulativeGasUsed": "0x4f871",
          "logs": [
            {
              "address": "0x763d95d1f6471f1e99024d704005750fb0fca0c0",
              "topics": [
                "0x238399d427b947898edb290f5ff0f9109849b1c3ba196a42e35f00c50a54b98b"
              ],
              "data": "0x0000000000000000000000000000000000000000000000000000000000000002000000000000000000000000febff4ae0a55be9a48e239648df53e0fc462f60a",
              "blockHash": "0x57740337a365315cb8f6785457d3ebeab212bf215e33b08cad2e66d209287d34",
              "blockNumber": "0x4b6f5c",
              "transactionHash": "0xf32148f83307bb51a21bc9609b32a4f33ad9422a006618f189cbd2c4210b73b6",
              "transactionIndex": "0x4",
              "logIndex": "0x0",
              "removed": false
            }
          ],
          "logsBloom": "0x00000000000000000000000000000000000000000000000000000000000000000000000000000000000000000000000000000000000000000800000000000000000000000000000000000000000000000000000000000000000000000000000000000000000000000000000000000000000000000000000000004000000000000000000000000000000000000000000000000000000000000000000000000000000000000000040000000000000000000010000000000000000002000000000000000000000000000000000000000000000000000000000000040000000000000000000000000000000000000000000000000000000000000000000000000000",
          "type": "0x2",
          "transactionHash": "0xf32148f83307bb51a21bc9609b32a4f33ad9422a006618f189cbd2c4210b73b6",
          "transactionIndex": "0x4",
          "blockHash": "0x57740337a365315cb8f6785457d3ebeab212bf215e33b08cad2e66d209287d34",
          "blockNumber": "0x4b6f5c",
          "gasUsed": "0xba43",
          "effectiveGasPrice": "0xf433d",
          "from": "0x27c1c548be42711520121f080296dfe8870d6bcd",
          "to": "0x763d95d1f6471f1e99024d704005750fb0fca0c0",
          "contractAddress": null,
          "l1BaseFeeScalar": "0x7d0",
          "l1BlobBaseFee": "0x1",
          "l1BlobBaseFeeScalar": "0xdbba0",
          "l1Fee": "0x278fba",
          "l1GasPrice": "0xc5cce",
          "l1GasUsed": "0x640"
        },
        {
          "status": "0x1",
          "cumulativeGasUsed": "0x5c1aa",
          "logs": [
            {
              "address": "0x8b3200c0e21f121df60ef717a74617df4fa367af",
              "topics": [
                "0x2f8788117e7eff1d82e926ec794901d17c78024a50270940304540a733656f0d",
                "0x9f2df0fed2c77648de5860a4cc508cd0818c85b8b8a1ab4ceeef8d981c8956a6",
                "0x000000000000000000000000763d95d1f6471f1e99024d704005750fb0fca0c0",
                "0x00000000000000000000000027c1c548be42711520121f080296dfe8870d6bcd"
              ],
              "data": "0x",
              "blockHash": "0x57740337a365315cb8f6785457d3ebeab212bf215e33b08cad2e66d209287d34",
              "blockNumber": "0x4b6f5c",
              "transactionHash": "0x248629dcd28fb8b2ab8fb4662250caf8a461352a7c0a1433ef1394fa54aefa2d",
              "transactionIndex": "0x5",
              "logIndex": "0x1",
              "removed": false
            }
          ],
          "logsBloom": "0x000000040000000000000000000000000000000000000000000000000000000000000000000000000000000000000040020000000000000000000080000000000000000000000000000000000000000000000000000000000000000000000000000000000002000001000000000000000000000000000000000000000010000000000000000000000000000000000c0000000000000000000000000000000000000000000000000000000000000000001000000000000000001000000000000000000000000000000000000000000000001000000000000100000000000000000000000000000000000000000000000000000000000080000000100000000000",
          "type": "0x2",
          "transactionHash": "0x248629dcd28fb8b2ab8fb4662250caf8a461352a7c0a1433ef1394fa54aefa2d",
          "transactionIndex": "0x5",
          "blockHash": "0x57740337a365315cb8f6785457d3ebeab212bf215e33b08cad2e66d209287d34",
          "blockNumber": "0x4b6f5c",
          "gasUsed": "0xc939",
          "effectiveGasPrice": "0xf433d",
          "from": "0x27c1c548be42711520121f080296dfe8870d6bcd",
          "to": "0x8b3200c0e21f121df60ef717a74617df4fa367af",
          "contractAddress": null,
          "l1BaseFeeScalar": "0x7d0",
          "l1BlobBaseFee": "0x1",
          "l1BlobBaseFeeScalar": "0xdbba0",
          "l1Fee": "0x29ba35",
          "l1GasPrice": "0xc5cce",
          "l1GasUsed": "0x697"
        },
        {
          "status": "0x1",
          "cumulativeGasUsed": "0x76932",
          "logs": [
            {
              "address": "0x8b3200c0e21f121df60ef717a74617df4fa367af",
              "topics": [
                "0x2f8788117e7eff1d82e926ec794901d17c78024a50270940304540a733656f0d",
                "0x3c11d16cbaffd01df69ce1c404f6340ee057498f5f00246190ea54220576a848",
                "0x000000000000000000000000763d95d1f6471f1e99024d704005750fb0fca0c0",
                "0x00000000000000000000000027c1c548be42711520121f080296dfe8870d6bcd"
              ],
              "data": "0x",
              "blockHash": "0x57740337a365315cb8f6785457d3ebeab212bf215e33b08cad2e66d209287d34",
              "blockNumber": "0x4b6f5c",
              "transactionHash": "0xbb8b306e1a20eaf84210f848333b3382a89e73e25e42ebb2178f56eb270c1ce0",
              "transactionIndex": "0x7",
              "logIndex": "0x3",
              "removed": false
            }
          ],
          "logsBloom": "0x000000040000100000000000000000000000000000000000000000000000000000000000000000000000000000000000020000000000000000000080000000000000000000000000000000000000000000000000000000000000000000000000000000000002000001000000000000000000000000000000000000000000000000000000000000000000000000000c0000000000000000000000000000000000000000000000000000000000000000001000000000004000001000000000000000040000000000000000000000000000000000000000000100000000000000000000000000000000000000000000000000000000000080000000100000000000",
          "type": "0x2",
          "transactionHash": "0xbb8b306e1a20eaf84210f848333b3382a89e73e25e42ebb2178f56eb270c1ce0",
          "transactionIndex": "0x7",
          "blockHash": "0x57740337a365315cb8f6785457d3ebeab212bf215e33b08cad2e66d209287d34",
          "blockNumber": "0x4b6f5c",
          "gasUsed": "0xc92d",
          "effectiveGasPrice": "0xf433d",
          "from": "0x27c1c548be42711520121f080296dfe8870d6bcd",
          "to": "0x8b3200c0e21f121df60ef717a74617df4fa367af",
          "contractAddress": null,
          "l1BaseFeeScalar": "0x7d0",
          "l1BlobBaseFee": "0x1",
          "l1BlobBaseFeeScalar": "0xdbba0",
          "l1Fee": "0x29ba35",
          "l1GasPrice": "0xc5cce",
          "l1GasUsed": "0x697"
        }
      ],
      "libraries": [],
      "pending": [],
      "returns": {},
      "timestamp": 1731796130,
      "chain": 1301,
      "commit": "b4360d4e"
    },
    {
      "transactions": [
        {
          "hash": "0x45f6575cbcb43513a6bb6350f6cea7ad7aabfad4e2ef2d3227e0dd9543d1900a",
          "transactionType": "CALL",
          "contractName": null,
          "contractAddress": "0xfebff4ae0a55be9a48e239648df53e0fc462f60a",
          "function": "setPeer(uint32,bytes32)",
          "arguments": [
            "1",
            "0x000000000000000000000000763d95d1f6471f1e99024d704005750fb0fca0c0"
          ],
          "transaction": {
            "from": "0x27c1c548be42711520121f080296dfe8870d6bcd",
            "to": "0xfebff4ae0a55be9a48e239648df53e0fc462f60a",
            "gas": "0xa4a5",
            "value": "0x0",
            "input": "0x3400288b0000000000000000000000000000000000000000000000000000000000000001000000000000000000000000763d95d1f6471f1e99024d704005750fb0fca0c0",
            "nonce": "0xb",
            "chainId": "0x14a34"
          },
          "additionalContracts": [],
          "isFixedGasLimit": false
        },
        {
          "hash": "0x7d557c55ed884f1c194950a8e231f423c0b2968440afb6e1db854252d1420270",
          "transactionType": "CALL",
          "contractName": null,
          "contractAddress": "0x8b3200c0e21f121df60ef717a74617df4fa367af",
          "function": "grantRole(bytes32,address)",
          "arguments": [
            "0x9f2df0fed2c77648de5860a4cc508cd0818c85b8b8a1ab4ceeef8d981c8956a6",
            "0xFeBfF4aE0A55Be9A48E239648DF53e0FC462F60A"
          ],
          "transaction": {
            "from": "0x27c1c548be42711520121f080296dfe8870d6bcd",
            "to": "0x8b3200c0e21f121df60ef717a74617df4fa367af",
            "gas": "0xa73b",
            "value": "0x0",
            "input": "0x2f2ff15d9f2df0fed2c77648de5860a4cc508cd0818c85b8b8a1ab4ceeef8d981c8956a6000000000000000000000000febff4ae0a55be9a48e239648df53e0fc462f60a",
            "nonce": "0xc",
            "chainId": "0x14a34"
          },
          "additionalContracts": [],
          "isFixedGasLimit": false
        },
        {
          "hash": "0x3522a6c0ed3532f0ea4fef0a3e0eeab9e866665f233540314cdce744da265815",
          "transactionType": "CALL",
          "contractName": null,
          "contractAddress": "0x8b3200c0e21f121df60ef717a74617df4fa367af",
          "function": "grantRole(bytes32,address)",
          "arguments": [
            "0x3c11d16cbaffd01df69ce1c404f6340ee057498f5f00246190ea54220576a848",
            "0xFeBfF4aE0A55Be9A48E239648DF53e0FC462F60A"
          ],
          "transaction": {
            "from": "0x27c1c548be42711520121f080296dfe8870d6bcd",
            "to": "0x8b3200c0e21f121df60ef717a74617df4fa367af",
            "gas": "0x9ddf",
            "value": "0x0",
            "input": "0x2f2ff15d3c11d16cbaffd01df69ce1c404f6340ee057498f5f00246190ea54220576a848000000000000000000000000febff4ae0a55be9a48e239648df53e0fc462f60a",
            "nonce": "0xd",
            "chainId": "0x14a34"
          },
          "additionalContracts": [],
          "isFixedGasLimit": false
        }
      ],
      "receipts": [
        {
          "status": "0x1",
          "cumulativeGasUsed": "0x3b9c4",
          "logs": [
            {
              "address": "0xfebff4ae0a55be9a48e239648df53e0fc462f60a",
              "topics": [
                "0x238399d427b947898edb290f5ff0f9109849b1c3ba196a42e35f00c50a54b98b"
              ],
              "data": "0x0000000000000000000000000000000000000000000000000000000000000001000000000000000000000000763d95d1f6471f1e99024d704005750fb0fca0c0",
              "blockHash": "0x1c9f82ea66ee53e1496b09777ad389c5d18cda4a711f0e959b9ee4928238b677",
              "blockNumber": "0x112dee6",
              "transactionHash": "0x45f6575cbcb43513a6bb6350f6cea7ad7aabfad4e2ef2d3227e0dd9543d1900a",
              "transactionIndex": "0x3",
              "logIndex": "0x3",
              "removed": false
            }
          ],
          "logsBloom": "0x00000000000000000000000000000000000000000000000000000000000000000000000000000000000000000000000000000000000000000800000000000000000000000000000000000000000000000000000000000000000000000000000000000000000000000000000000000000000000000000000000000000400000000000000000000000000000000000000000000000000000000000000000000000000000000000000000000000000000000010000080000000000002000000000000000000000000000000000000000000000000000000000000040000000000000000000000000000000000000000000000000000000000000000000000000000",
          "type": "0x2",
          "transactionHash": "0x45f6575cbcb43513a6bb6350f6cea7ad7aabfad4e2ef2d3227e0dd9543d1900a",
          "transactionIndex": "0x3",
          "blockHash": "0x1c9f82ea66ee53e1496b09777ad389c5d18cda4a711f0e959b9ee4928238b677",
          "blockNumber": "0x112dee6",
          "gasUsed": "0x7734",
          "effectiveGasPrice": "0xf25f5",
          "from": "0x27c1c548be42711520121f080296dfe8870d6bcd",
          "to": "0xfebff4ae0a55be9a48e239648df53e0fc462f60a",
          "contractAddress": null,
          "l1BaseFeeScalar": "0x44d",
          "l1BlobBaseFee": "0x1",
          "l1BlobBaseFeeScalar": "0xa118b",
          "l1Fee": "0x17ad68",
          "l1GasPrice": "0xd70b5",
          "l1GasUsed": "0x640"
        },
        {
          "status": "0x1",
          "cumulativeGasUsed": "0x42c1d",
          "logs": [],
          "logsBloom": "0x00000000000000000000000000000000000000000000000000000000000000000000000000000000000000000000000000000000000000000000000000000000000000000000000000000000000000000000000000000000000000000000000000000000000000000000000000000000000000000000000000000000000000000000000000000000000000000000000000000000000000000000000000000000000000000000000000000000000000000000000000000000000000000000000000000000000000000000000000000000000000000000000000000000000000000000000000000000000000000000000000000000000000000000000000000000",
          "type": "0x2",
          "transactionHash": "0x7d557c55ed884f1c194950a8e231f423c0b2968440afb6e1db854252d1420270",
          "transactionIndex": "0x4",
          "blockHash": "0x1c9f82ea66ee53e1496b09777ad389c5d18cda4a711f0e959b9ee4928238b677",
          "blockNumber": "0x112dee6",
          "gasUsed": "0x7259",
          "effectiveGasPrice": "0xf25f5",
          "from": "0x27c1c548be42711520121f080296dfe8870d6bcd",
          "to": "0x8b3200c0e21f121df60ef717a74617df4fa367af",
          "contractAddress": null,
          "l1BaseFeeScalar": "0x44d",
          "l1BlobBaseFee": "0x1",
          "l1BlobBaseFeeScalar": "0xa118b",
          "l1Fee": "0x18f943",
          "l1GasPrice": "0xd70b5",
          "l1GasUsed": "0x697"
        },
        {
          "status": "0x1",
          "cumulativeGasUsed": "0x49e6a",
          "logs": [],
          "logsBloom": "0x00000000000000000000000000000000000000000000000000000000000000000000000000000000000000000000000000000000000000000000000000000000000000000000000000000000000000000000000000000000000000000000000000000000000000000000000000000000000000000000000000000000000000000000000000000000000000000000000000000000000000000000000000000000000000000000000000000000000000000000000000000000000000000000000000000000000000000000000000000000000000000000000000000000000000000000000000000000000000000000000000000000000000000000000000000000",
          "type": "0x2",
          "transactionHash": "0x3522a6c0ed3532f0ea4fef0a3e0eeab9e866665f233540314cdce744da265815",
          "transactionIndex": "0x5",
          "blockHash": "0x1c9f82ea66ee53e1496b09777ad389c5d18cda4a711f0e959b9ee4928238b677",
          "blockNumber": "0x112dee6",
          "gasUsed": "0x724d",
          "effectiveGasPrice": "0xf25f5",
          "from": "0x27c1c548be42711520121f080296dfe8870d6bcd",
          "to": "0x8b3200c0e21f121df60ef717a74617df4fa367af",
          "contractAddress": null,
          "l1BaseFeeScalar": "0x44d",
          "l1BlobBaseFee": "0x1",
          "l1BlobBaseFeeScalar": "0xa118b",
          "l1Fee": "0x18f943",
          "l1GasPrice": "0xd70b5",
          "l1GasUsed": "0x697"
        }
      ],
      "libraries": [],
      "pending": [],
      "returns": {},
      "timestamp": 1731796131,
      "chain": 84532,
      "commit": "b4360d4e"
    }
  ],
  "timestamp": 1731796141
}