{
  "deployments": [
    {
      "transactions": [
        {
          "hash": "0x0b8b9f1c797731ad05d1c9bd6724a71799314a54072a7482b402aa6e4d29e70b",
          "transactionType": "CALL",
          "contractName": null,
          "contractAddress": "0xd9fbde12bac5681b8b9a92810c3f3a48286a916e",
          "function": "setPriceFeedId(address,bytes32)",
          "arguments": [
            "0x8B3200C0e21f121df60EF717A74617Df4Fa367af",
            "0xeaa020c61cc479712813461ce153894a96a6c00b21ed0cfc2798d1f9a9e9c94a"
          ],
          "transaction": {
            "from": "0x27c1c548be42711520121f080296dfe8870d6bcd",
            "to": "0xd9fbde12bac5681b8b9a92810c3f3a48286a916e",
            "gas": "0x9904",
            "value": "0x0",
            "input": "0xd3c217cd0000000000000000000000008b3200c0e21f121df60ef717a74617df4fa367afeaa020c61cc479712813461ce153894a96a6c00b21ed0cfc2798d1f9a9e9c94a",
            "nonce": "0x10",
            "chainId": "0x515"
          },
          "additionalContracts": [],
          "isFixedGasLimit": false
        },
        {
          "hash": "0x31ba630c3813a431b0af74d1b4afc233ed31aa00cad587944addb9f28af4e62c",
          "transactionType": "CALL",
          "contractName": null,
          "contractAddress": "0xd9fbde12bac5681b8b9a92810c3f3a48286a916e",
          "function": "setPeer(uint32,bytes32)",
          "arguments": [
            "2",
            "0x000000000000000000000000febff4ae0a55be9a48e239648df53e0fc462f60a"
          ],
          "transaction": {
            "from": "0x27c1c548be42711520121f080296dfe8870d6bcd",
            "to": "0xd9fbde12bac5681b8b9a92810c3f3a48286a916e",
            "gas": "0x95e6",
            "value": "0x0",
            "input": "0x3400288b0000000000000000000000000000000000000000000000000000000000000002000000000000000000000000febff4ae0a55be9a48e239648df53e0fc462f60a",
            "nonce": "0x11",
            "chainId": "0x515"
          },
          "additionalContracts": [],
          "isFixedGasLimit": false
        },
        {
          "hash": "0xb0ec74fa8f15f2dd8339358946acf70acf604c926e82f373d1d6691d320efe14",
          "transactionType": "CALL",
          "contractName": null,
          "contractAddress": "0x8b3200c0e21f121df60ef717a74617df4fa367af",
          "function": "grantRole(bytes32,address)",
          "arguments": [
            "0x9f2df0fed2c77648de5860a4cc508cd0818c85b8b8a1ab4ceeef8d981c8956a6",
            "0xD9fBDE12BAc5681B8b9a92810c3f3A48286A916e"
          ],
          "transaction": {
            "from": "0x27c1c548be42711520121f080296dfe8870d6bcd",
            "to": "0x8b3200c0e21f121df60ef717a74617df4fa367af",
            "gas": "0xa73b",
            "value": "0x0",
            "input": "0x2f2ff15d9f2df0fed2c77648de5860a4cc508cd0818c85b8b8a1ab4ceeef8d981c8956a6000000000000000000000000d9fbde12bac5681b8b9a92810c3f3a48286a916e",
            "nonce": "0x12",
            "chainId": "0x515"
          },
          "additionalContracts": [],
          "isFixedGasLimit": false
        },
        {
          "hash": "0x5148698e407bb2fde8ecc685feb2a65bed111ff10179e33e7611ba88bce64afb",
          "transactionType": "CALL",
          "contractName": null,
          "contractAddress": "0x8b3200c0e21f121df60ef717a74617df4fa367af",
          "function": "grantRole(bytes32,address)",
          "arguments": [
            "0x3c11d16cbaffd01df69ce1c404f6340ee057498f5f00246190ea54220576a848",
            "0xD9fBDE12BAc5681B8b9a92810c3f3A48286A916e"
          ],
          "transaction": {
            "from": "0x27c1c548be42711520121f080296dfe8870d6bcd",
            "to": "0x8b3200c0e21f121df60ef717a74617df4fa367af",
            "gas": "0x9ddf",
            "value": "0x0",
            "input": "0x2f2ff15d3c11d16cbaffd01df69ce1c404f6340ee057498f5f00246190ea54220576a848000000000000000000000000d9fbde12bac5681b8b9a92810c3f3a48286a916e",
            "nonce": "0x13",
            "chainId": "0x515"
          },
          "additionalContracts": [],
          "isFixedGasLimit": false
        }
      ],
      "receipts": [
        {
          "status": "0x1",
          "cumulativeGasUsed": "0x860bb",
          "logs": [],
          "logsBloom": "0x00000000000000000000000000000000000000000000000000000000000000000000000000000000000000000000000000000000000000000000000000000000000000000000000000000000000000000000000000000000000000000000000000000000000000000000000000000000000000000000000000000000000000000000000000000000000000000000000000000000000000000000000000000000000000000000000000000000000000000000000000000000000000000000000000000000000000000000000000000000000000000000000000000000000000000000000000000000000000000000000000000000000000000000000000000000",
          "type": "0x2",
          "transactionHash": "0x0b8b9f1c797731ad05d1c9bd6724a71799314a54072a7482b402aa6e4d29e70b",
          "transactionIndex": "0xb",
          "blockHash": "0x861d4a3c8ae4edd7040202fb3633e57034dad9eba0ad290aa5ac2401948bc00b",
          "blockNumber": "0x4b6d2e",
          "gasUsed": "0x68a1",
          "effectiveGasPrice": "0xf433c",
          "from": "0x27c1c548be42711520121f080296dfe8870d6bcd",
          "to": "0xd9fbde12bac5681b8b9a92810c3f3a48286a916e",
          "contractAddress": null,
          "l1BaseFeeScalar": "0x7d0",
          "l1BlobBaseFee": "0x1",
          "l1BlobBaseFeeScalar": "0xdbba0",
          "l1Fee": "0x2c3679",
          "l1GasPrice": "0xd3420",
          "l1GasUsed": "0x68a"
        },
        {
          "status": "0x1",
          "cumulativeGasUsed": "0x8cd42",
          "logs": [
            {
              "address": "0xd9fbde12bac5681b8b9a92810c3f3a48286a916e",
              "topics": [
                "0x238399d427b947898edb290f5ff0f9109849b1c3ba196a42e35f00c50a54b98b"
              ],
              "data": "0x0000000000000000000000000000000000000000000000000000000000000002000000000000000000000000febff4ae0a55be9a48e239648df53e0fc462f60a",
              "blockHash": "0x861d4a3c8ae4edd7040202fb3633e57034dad9eba0ad290aa5ac2401948bc00b",
              "blockNumber": "0x4b6d2e",
              "transactionHash": "0x31ba630c3813a431b0af74d1b4afc233ed31aa00cad587944addb9f28af4e62c",
              "transactionIndex": "0xc",
              "logIndex": "0x8",
              "removed": false
            }
          ],
          "logsBloom": "0x00000000000000000000000000000000000000000000000000000000000000000000000100000000000000000000000000000000000000000800000000000000000000000000000000000000000000000000000000000000000000000000000000000000000000000000000000000000000000000040000000008000000000000000000000000000000000000000000000000000000000000000000000000000000000000000000000000000000000000000000000000000000002000000000000000000000000000000000000000000000000000000000000040000000000000000000000000000000000000000000000000000000000000000000000000000",
          "type": "0x2",
          "transactionHash": "0x31ba630c3813a431b0af74d1b4afc233ed31aa00cad587944addb9f28af4e62c",
          "transactionIndex": "0xc",
          "blockHash": "0x861d4a3c8ae4edd7040202fb3633e57034dad9eba0ad290aa5ac2401948bc00b",
          "blockNumber": "0x4b6d2e",
          "gasUsed": "0x6c87",
          "effectiveGasPrice": "0xf433c",
          "from": "0x27c1c548be42711520121f080296dfe8870d6bcd",
          "to": "0xd9fbde12bac5681b8b9a92810c3f3a48286a916e",
          "contractAddress": null,
          "l1BaseFeeScalar": "0x7d0",
          "l1BlobBaseFee": "0x1",
          "l1BlobBaseFeeScalar": "0xdbba0",
          "l1Fee": "0x2a40c0",
          "l1GasPrice": "0xd3420",
          "l1GasUsed": "0x640"
        },
        {
          "status": "0x1",
          "cumulativeGasUsed": "0xdb5a0",
          "logs": [],
          "logsBloom": "0x00000000000000000000000000000000000000000000000000000000000000000000000000000000000000000000000000000000000000000000000000000000000000000000000000000000000000000000000000000000000000000000000000000000000000000000000000000000000000000000000000000000000000000000000000000000000000000000000000000000000000000000000000000000000000000000000000000000000000000000000000000000000000000000000000000000000000000000000000000000000000000000000000000000000000000000000000000000000000000000000000000000000000000000000000000000",
          "type": "0x2",
          "transactionHash": "0xb0ec74fa8f15f2dd8339358946acf70acf604c926e82f373d1d6691d320efe14",
          "transactionIndex": "0x14",
          "blockHash": "0x9b7dd3ca18a7b1332e171f27b514fd04e9f64f59f33533e770b78526d4369393",
          "blockNumber": "0x4b6d2f",
          "gasUsed": "0x7259",
          "effectiveGasPrice": "0xf433c",
          "from": "0x27c1c548be42711520121f080296dfe8870d6bcd",
          "to": "0x8b3200c0e21f121df60ef717a74617df4fa367af",
          "contractAddress": null,
          "l1BaseFeeScalar": "0x7d0",
          "l1BlobBaseFee": "0x1",
          "l1BlobBaseFeeScalar": "0xdbba0",
          "l1Fee": "0x2c3679",
          "l1GasPrice": "0xd3420",
          "l1GasUsed": "0x68a"
        },
        {
          "status": "0x1",
          "cumulativeGasUsed": "0xe27ed",
          "logs": [],
          "logsBloom": "0x00000000000000000000000000000000000000000000000000000000000000000000000000000000000000000000000000000000000000000000000000000000000000000000000000000000000000000000000000000000000000000000000000000000000000000000000000000000000000000000000000000000000000000000000000000000000000000000000000000000000000000000000000000000000000000000000000000000000000000000000000000000000000000000000000000000000000000000000000000000000000000000000000000000000000000000000000000000000000000000000000000000000000000000000000000000",
          "type": "0x2",
          "transactionHash": "0x5148698e407bb2fde8ecc685feb2a65bed111ff10179e33e7611ba88bce64afb",
          "transactionIndex": "0x15",
          "blockHash": "0x9b7dd3ca18a7b1332e171f27b514fd04e9f64f59f33533e770b78526d4369393",
          "blockNumber": "0x4b6d2f",
          "gasUsed": "0x724d",
          "effectiveGasPrice": "0xf433c",
          "from": "0x27c1c548be42711520121f080296dfe8870d6bcd",
          "to": "0x8b3200c0e21f121df60ef717a74617df4fa367af",
          "contractAddress": null,
          "l1BaseFeeScalar": "0x7d0",
          "l1BlobBaseFee": "0x1",
          "l1BlobBaseFeeScalar": "0xdbba0",
          "l1Fee": "0x2c3679",
          "l1GasPrice": "0xd3420",
          "l1GasUsed": "0x68a"
        }
      ],
      "libraries": [],
      "pending": [],
      "returns": {},
      "timestamp": 1731795570,
      "chain": 1301,
      "commit": "b4360d4e"
    },
    {
      "transactions": [
        {
          "hash": "0x5306a4327c46bd8bace6863f3f4716e4560ba088928ab8aa42ef5959614896b0",
          "transactionType": "CALL",
          "contractName": null,
          "contractAddress": "0xfebff4ae0a55be9a48e239648df53e0fc462f60a",
          "function": "setPeer(uint32,bytes32)",
          "arguments": [
            "1",
            "0x000000000000000000000000d9fbde12bac5681b8b9a92810c3f3a48286a916e"
          ],
          "transaction": {
            "from": "0x27c1c548be42711520121f080296dfe8870d6bcd",
            "to": "0xfebff4ae0a55be9a48e239648df53e0fc462f60a",
            "gas": "0x958a",
            "value": "0x0",
            "input": "0x3400288b0000000000000000000000000000000000000000000000000000000000000001000000000000000000000000d9fbde12bac5681b8b9a92810c3f3a48286a916e",
            "nonce": "0x8",
            "chainId": "0x14a34"
          },
          "additionalContracts": [],
          "isFixedGasLimit": false
        },
        {
          "hash": "0xd7dac00715ada9b6d100957ea9285df4afd2e176051e48f731431a6b08f1faf2",
          "transactionType": "CALL",
          "contractName": null,
          "contractAddress": "0x8b3200c0e21f121df60ef717a74617df4fa367af",
          "function": "grantRole(bytes32,address)",
          "arguments": [
            "0x9f2df0fed2c77648de5860a4cc508cd0818c85b8b8a1ab4ceeef8d981c8956a6",
            "0xFeBfF4aE0A55Be9A48E239648DF53e0FC462F60A"
          ],
          "transaction": {
            "from": "0x27c1c548be42711520121f080296dfe8870d6bcd",
            "to": "0x8b3200c0e21f121df60ef717a74617df4fa367af",
            "gas": "0xa73b",
            "value": "0x0",
            "input": "0x2f2ff15d9f2df0fed2c77648de5860a4cc508cd0818c85b8b8a1ab4ceeef8d981c8956a6000000000000000000000000febff4ae0a55be9a48e239648df53e0fc462f60a",
            "nonce": "0x9",
            "chainId": "0x14a34"
          },
          "additionalContracts": [],
          "isFixedGasLimit": false
        },
        {
          "hash": "0x6757c2953d9d7cec4a5ab487eccc19797ac5699ec4ae29c4c71955d031bd37ba",
          "transactionType": "CALL",
          "contractName": null,
          "contractAddress": "0x8b3200c0e21f121df60ef717a74617df4fa367af",
          "function": "grantRole(bytes32,address)",
          "arguments": [
            "0x3c11d16cbaffd01df69ce1c404f6340ee057498f5f00246190ea54220576a848",
            "0xFeBfF4aE0A55Be9A48E239648DF53e0FC462F60A"
          ],
          "transaction": {
            "from": "0x27c1c548be42711520121f080296dfe8870d6bcd",
            "to": "0x8b3200c0e21f121df60ef717a74617df4fa367af",
            "gas": "0x9ddf",
            "value": "0x0",
            "input": "0x2f2ff15d3c11d16cbaffd01df69ce1c404f6340ee057498f5f00246190ea54220576a848000000000000000000000000febff4ae0a55be9a48e239648df53e0fc462f60a",
            "nonce": "0xa",
            "chainId": "0x14a34"
          },
          "additionalContracts": [],
          "isFixedGasLimit": false
        }
      ],
      "receipts": [
        {
          "status": "0x1",
          "cumulativeGasUsed": "0x104475",
          "logs": [
            {
              "address": "0xfebff4ae0a55be9a48e239648df53e0fc462f60a",
              "topics": [
                "0x238399d427b947898edb290f5ff0f9109849b1c3ba196a42e35f00c50a54b98b"
              ],
              "data": "0x0000000000000000000000000000000000000000000000000000000000000001000000000000000000000000d9fbde12bac5681b8b9a92810c3f3a48286a916e",
              "blockHash": "0x99c60ae26623fd4b038eb854c8ab9e07f713f1757e3c32c992aa016e88044c5d",
              "blockNumber": "0x112ddd0",
              "transactionHash": "0x5306a4327c46bd8bace6863f3f4716e4560ba088928ab8aa42ef5959614896b0",
              "transactionIndex": "0x6",
              "logIndex": "0x11",
              "removed": false
            }
          ],
          "logsBloom": "0x00000000000000000000000000000000000000000000000000000000000000000000000000000000000000000000000000000000000000000800000000000000000000000000000000000000000000000000000000000000000000000000000000000000000000000000000000000000000000000000000000000000400000000000000000000000000000000000000000000000000000000000000000000000000000000000000000000000000000000010000080000000000002000000000000000000000000000000000000000000000000000000000000040000000000000000000000000000000000000000000000000000000000000000000000000000",
          "type": "0x2",
          "transactionHash": "0x5306a4327c46bd8bace6863f3f4716e4560ba088928ab8aa42ef5959614896b0",
          "transactionIndex": "0x6",
          "blockHash": "0x99c60ae26623fd4b038eb854c8ab9e07f713f1757e3c32c992aa016e88044c5d",
          "blockNumber": "0x112ddd0",
          "gasUsed": "0x6c44",
          "effectiveGasPrice": "0x142f0",
          "from": "0x27c1c548be42711520121f080296dfe8870d6bcd",
          "to": "0xfebff4ae0a55be9a48e239648df53e0fc462f60a",
          "contractAddress": null,
          "l1BaseFeeScalar": "0x44d",
          "l1BlobBaseFee": "0x1",
          "l1BlobBaseFeeScalar": "0xa118b",
          "l1Fee": "0x2129c4",
          "l1GasPrice": "0x12d334",
          "l1GasUsed": "0x640"
        },
        {
          "status": "0x1",
          "cumulativeGasUsed": "0x10b6ce",
          "logs": [],
          "logsBloom": "0x00000000000000000000000000000000000000000000000000000000000000000000000000000000000000000000000000000000000000000000000000000000000000000000000000000000000000000000000000000000000000000000000000000000000000000000000000000000000000000000000000000000000000000000000000000000000000000000000000000000000000000000000000000000000000000000000000000000000000000000000000000000000000000000000000000000000000000000000000000000000000000000000000000000000000000000000000000000000000000000000000000000000000000000000000000000",
          "type": "0x2",
          "transactionHash": "0xd7dac00715ada9b6d100957ea9285df4afd2e176051e48f731431a6b08f1faf2",
          "transactionIndex": "0x7",
          "blockHash": "0x99c60ae26623fd4b038eb854c8ab9e07f713f1757e3c32c992aa016e88044c5d",
          "blockNumber": "0x112ddd0",
          "gasUsed": "0x7259",
          "effectiveGasPrice": "0x142f0",
          "from": "0x27c1c548be42711520121f080296dfe8870d6bcd",
          "to": "0x8b3200c0e21f121df60ef717a74617df4fa367af",
          "contractAddress": null,
          "l1BaseFeeScalar": "0x44d",
          "l1BlobBaseFee": "0x1",
          "l1BlobBaseFeeScalar": "0xa118b",
          "l1Fee": "0x22fa92",
          "l1GasPrice": "0x12d334",
          "l1GasUsed": "0x697"
        },
        {
          "status": "0x1",
          "cumulativeGasUsed": "0x11291b",
          "logs": [],
          "logsBloom": "0x00000000000000000000000000000000000000000000000000000000000000000000000000000000000000000000000000000000000000000000000000000000000000000000000000000000000000000000000000000000000000000000000000000000000000000000000000000000000000000000000000000000000000000000000000000000000000000000000000000000000000000000000000000000000000000000000000000000000000000000000000000000000000000000000000000000000000000000000000000000000000000000000000000000000000000000000000000000000000000000000000000000000000000000000000000000",
          "type": "0x2",
          "transactionHash": "0x6757c2953d9d7cec4a5ab487eccc19797ac5699ec4ae29c4c71955d031bd37ba",
          "transactionIndex": "0x8",
          "blockHash": "0x99c60ae26623fd4b038eb854c8ab9e07f713f1757e3c32c992aa016e88044c5d",
          "blockNumber": "0x112ddd0",
          "gasUsed": "0x724d",
          "effectiveGasPrice": "0x142f0",
          "from": "0x27c1c548be42711520121f080296dfe8870d6bcd",
          "to": "0x8b3200c0e21f121df60ef717a74617df4fa367af",
          "contractAddress": null,
          "l1BaseFeeScalar": "0x44d",
          "l1BlobBaseFee": "0x1",
          "l1BlobBaseFeeScalar": "0xa118b",
          "l1Fee": "0x22fa92",
          "l1GasPrice": "0x12d334",
          "l1GasUsed": "0x697"
        }
      ],
      "libraries": [],
      "pending": [],
      "returns": {},
      "timestamp": 1731795572,
      "chain": 84532,
      "commit": "b4360d4e"
    }
  ],
  "timestamp": 1731795586
}